:020000040800F2
:1000000000280020490C0008E50B0008ED0B000853
:10001000F50B0008FD0B0008050C000800000000AF
:100020000000000000000000000000000D0C0008AF
:10003000190C000800000000250C0008310C000815
:10004000910C0008910C0008910C0008910C00081C
:10005000910C0008910C0008910C0008910C00080C
:10006000910C0008910C0008910C0008910C0008FC
:10007000910C0008910C0008910C0008910C0008EC
:10008000910C0008910C0008910C0008910C0008DC
:10009000910C0008910C0008910C0008910C0008CC
:1000A000910C0008910C0008910C0008910C0008BC
:1000B000910C0008910C000800000000910C000851
:1000C000910C00080000000000000000910C0008E6
:1000D00000000000910C0008910C000800000000D6
:1000E000910C0008910C0008910C00080000000021
:1000F0000000000000000000000000000000000000
:0C01000000000000000000005FF808F1A3
:10010C0010B5054C237833B9044B13B10448AFF345
:10011C0000800123237010BD0C00002000000000A3
:10012C00A41A000808B5034B1BB103490348AFF3ED
:10013C00008008BD0000000010000020A41A000878
:10014C0080B586B000AF204B9B691F4A43F0040377
:10015C0093611D4B9B6903F004037B607B6807F183
:10016C00080300221A605A609A60DA6043F68E73B4
:10017C00BB600123FB6000233B6102237B6107F121
:10018C0008031946114800F0E9FE0F4B9B690E4A13
:10019C0043F0080393610C4B9B6903F008033B602D
:1001AC003B684FF6FF73BB600123FB6000233B6190
:1001BC0002237B6107F108031946054800F0CEFEC7
:1001CC0000BF1837BD4680BD00100240000801403A
:1001DC00000C014080B582B000AF78607B68082BC2
:1001EC0000F21A8101A252F823F000BF1D02000890
:1001FC0025040008250400089F02000825040008B7
:10020C00210300082504000825040008A3030008A6
:10021C0001220421824801F01DF8002202218048AD
:10022C0001F018F8002201217D4801F013F800229A
:10023C0020217B4801F00EF800221021784801F0B3
:10024C0009F801220821764801F004F801224FF444
:10025C008071734800F0FEFF00228021704800F08E
:10026C00F9FF002240216E4800F0F4FF00224FF409
:10027C0000616B4800F0EEFF00224FF4806168488B
:10028C0000F0E8FF01224FF40071654800F0E2FF36
:10029C00C2E001220421624800F0DCFF00220221AE
:1002AC005F4800F0D7FF002201215D4800F0D2FF2B
:1002BC00002220215A4800F0CDFF0122102158487D
:1002CC0000F0C8FF00220821554800F0C3FF0122AE
:1002DC004FF48071524800F0BDFF0022802150483D
:1002EC0000F0B8FF002240214D4800F0B3FF00227F
:1002FC004FF400614A4800F0ADFF01224FF48061D9
:10030C00474800F0A7FF00224FF40071444800F06A
:10031C00A1FF81E000220421414800F09BFF002254
:10032C0002213F4800F096FF012201213C4800F0D9
:10033C0091FF012220213A4800F08CFF002210216D
:10034C00374800F087FF00220821354800F082FF73
:10035C0000224FF48071324800F07CFF0022802193
:10036C002F4800F077FF012240212D4800F072FF4A
:10037C0001224FF400612A4800F06CFF00224FF478
:10038C008061274800F066FF00224FF4007124487A
:10039C0000F060FF40E000220421214800F05AFFE9
:1003AC00012202211E4800F055FF002201211C48A9
:1003BC0000F050FF01222021194800F04BFF0022D1
:1003CC001021174800F046FF00220821144800F0C5
:1003DC0041FF00224FF48071114800F03BFF0122D5
:1003EC0080210F4800F036FF002240210C4800F01D
:1003FC0031FF01224FF40061094800F02BFF00226D
:10040C004FF48061064800F025FF00224FF4007184
:10041C00034800F01FFF00BF00BF0837BD4680BD7A
:10042C00000C014080B582B000AF78607B68092B6E
:10043C0000F2478301A252F823F000BF71040008B8
:10044C0013050008B505000857060008F906000852
:10045C00A507000847080008E90800088B090008F0
:10046C002D0A000800228021C94800F0F3FE012269
:10047C004FF48071C64800F0EDFE00224FF400717D
:10048C00C34800F0E7FE00224FF48061C04800F042
:10049C00E1FE01224FF40061BD4800F0DBFE0022BA
:1004AC004FF48051BA4800F0D5FE00224FF40051B1
:1004BC00B74800F0CFFE00220221B54800F0CAFE7A
:1004CC0000220421B24800F0C5FE00220821B048E9
:1004DC0000F0C0FE00224FF48051AE4800F0BAFE8E
:1004EC0001224FF40051AB4800F0B4FE01224FF44E
:1004FC008041A84800F0AEFE00224FF40041A54810
:10050C0000F0A8FEDDE201228021A14800F0A2FE4D
:10051C0000224FF480719E4800F09CFE00224FF4A4
:10052C0000719B4800F096FE01224FF480619848C0
:10053C0000F090FE01224FF40061954800F08AFE15
:10054C0000224FF48051924800F084FE00224FF4B8
:10055C0000518F4800F07EFE002202218C4800F0F2
:10056C0079FE002204218A4800F074FE0122082141
:10057C00874800F06FFE00224FF48051854800F050
:10058C0069FE00224FF40051824800F063FE012204
:10059C004FF480417F4800F05DFE00224FF4004193
:1005AC007C4800F057FE8CE200228021784800F055
:1005BC0051FE00224FF48071754800F04BFE002272
:1005CC004FF40071724800F045FE00224FF4806138
:1005DC006F4800F03FFE01224FF400616C4800F0C0
:1005EC0039FE01224FF48051694800F033FE00229D
:1005FC004FF40051664800F02DFE012202216448A0
:10060C0000F028FE00220421614800F023FE0022A5
:10061C0008215F4800F01EFE01224FF480515D4816
:10062C0000F018FE01224FF400515A4800F012FE5F
:10063C0001224FF48041574800F00CFE01224FF488
:10064C000041544800F006FE3BE200228021504855
:10065C0000F000FE00224FF480714D4800F0FAFDCE
:10066C0001224FF400714A4800F0F4FD00224FF4CF
:10067C008061474800F0EEFD00224FF400614448D1
:10068C0000F0E8FD01224FF48051414800F0E2FDFA
:10069C0000224FF400513E4800F0DCFD0022022104
:1006AC003B4800F0D7FD00220421394800F0D2FD70
:1006BC0001220821364800F0CDFD00224FF4805174
:1006CC00344800F0C7FD00224FF40051314800F0CF
:1006DC00C1FD01224FF480412E4800F0BBFD0022E9
:1006EC004FF400412B4800F0B5FDEAE101228021D6
:1006FC00274800F0AFFD00224FF48071244800F031
:10070C00A9FD00224FF40071214800F0A3FD012245
:10071C004FF480611E4800F09DFD01224FF40061F2
:10072C001B4800F097FD01224FF48051184800F04F
:10073C0091FD01224FF40051154800F08BFD012270
:10074C000221134800F086FD00220421104800F01D
:10075C0081FD002208210E4800F07CFD01224FF49F
:10076C0080510C4800F076FD01224FF400510948ED
:10077C0000F070FD01224FF48041064800F06AFD44
:10078C0001224FF40041034800F064FD99E100BFE1
:10079C0000080140000C014000228021CB4800F0F1
:1007AC0059FD00224FF48071C84800F053FD00221F
:1007BC004FF40071C54800F04DFD00224FF48061EC
:1007CC00C24800F047FD01224FF40061BF4800F021
:1007DC0041FD01224FF48051BC4800F03BFD00224A
:1007EC004FF40051B94800F035FD00220221B74802
:1007FC0000F030FD01220421B44800F02BFD002252
:10080C000821B24800F026FD00224FF48051B04878
:10081C0000F020FD01224FF40051AD4800F01AFD0C
:10082C0000224FF48041AA4800F014FD00224FF43E
:10083C000041A74800F00EFD43E100228021A348AF
:10084C0000F008FD00224FF48071A04800F002FD7A
:10085C0001224FF400719D4800F0FCFC00224FF483
:10086C0080619A4800F0F6FC00224FF40061974832
:10087C0000F0F0FC01224FF48051944800F0EAFCA7
:10088C0000224FF40051914800F0E4FC01220221B7
:10089C008E4800F0DFFC002204218C4800F0DAFCCA
:1008AC0000220821894800F0D5FC01224FF4805128
:1008BC00874800F0CFFC01224FF40051844800F02F
:1008CC00C9FC00224FF48041814800F0C3FC002297
:1008DC004FF400417E4800F0BDFCF2E00122802183
:1008EC007A4800F0B7FC00224FF48071774800F092
:1008FC00B1FC00224FF40071744800F0ABFC0122F3
:10090C004FF48061714800F0A5FC01224FF40061A6
:10091C006E4800F09FFC01224FF480516B4800F0B0
:10092C0099FC01224FF40051684800F093FC00221E
:10093C000221664800F08EFC00220421634800F07E
:10094C0089FC00220821614800F084FC00224FF44D
:10095C0080515F4800F07EFC01224FF400515C484E
:10096C0000F078FC01224FF48041594800F072FCF1
:10097C0000224FF40041564800F06CFCA1E000222C
:10098C008021524800F066FC00224FF480714F48E1
:10099C0000F060FC01224FF400714C4800F05AFC4E
:1009AC0000224FF48061494800F054FC00224FF4BF
:1009BC000061464800F04EFC01224FF48051434840
:1009CC0000F048FC00224FF40051404800F042FC7B
:1009DC00002202213D4800F03DFC002204213B484E
:1009EC0000F038FC01220821384800F033FC0022CA
:1009FC004FF48051364800F02DFC00224FF400518A
:100A0C00334800F027FC01224FF48041304800F0BD
:100A1C0021FC00224FF400412D4800F01BFC50E05B
:100A2C0001228021294800F015FC00224FF480712E
:100A3C00264800F00FFC00224FF40071234800F010
:100A4C0009FC01224FF48061204800F003FC0122D4
:100A5C004FF400611D4800F0FDFB01224FF4805162
:100A6C001A4800F0F7FB01224FF40051174800F030
:100A7C00F1FB01220221154800F0ECFB00220421BD
:100A8C00124800F0E7FB00220821104800F0E2FBBE
:100A9C0001224FF480510E4800F0DCFB01224FF490
:100AAC0000510B4800F0D6FB01224FF4804108485E
:100ABC0000F0D0FB01224FF40041054800F0CAFBC6
:100ACC0000BF00BF0837BD4680BD00BF0008014015
:100ADC00000C014080B582B000AF00F0D5F800F0FA
:100AEC0017F8FFF72DFB00237B607B68092B01DDDA
:100AFC0000237B607868FFF76DFB7868FFF792FC4A
:100B0C004FF47A7000F022F97B6801337B60ECE7DC
:100B1C0080B590B000AF07F11803282200211846C9
:100B2C0000F08EFF3B1D00221A605A609A60DA605A
:100B3C001A610223BB610123BB621023FB620023F9
:100B4C007B6307F11803184600F09CFB0346002B4F
:100B5C0001D000F018F80F237B600023BB6000234A
:100B6C00FB6000233B6100237B613B1D0021184689
:100B7C0000F00AFE0346002B01D000F004F800BF81
:100B8C004037BD4680BD80B400AF72B600BF00BF19
:100B9C00FDE7000080B483B000AF0E4B9B690D4A9B
:100BAC0043F0010393610B4B9B6903F001037B60E2
:100BBC007B68084BDB69074A43F08053D361054BD4
:100BCC00DB6903F080533B603B6800BF0C37BD46CC
:100BDC0080BC70470010024080B400AF00BFFDE73E
:100BEC0080B400AF00BFFDE780B400AF00BFFDE7ED
:100BFC0080B400AF00BFFDE780B400AF00BFFDE7DD
:100C0C0080B400AF00BFBD4680BC704780B400AF5D
:100C1C0000BFBD4680BC704780B400AF00BFBD466E
:100C2C0080BC704780B500AF00F074F800BF80BD89
:100C3C0080B400AF00BFBD4680BC7047FFF7F8FF23
:100C4C000B480C490C4A002302E0D458C45004331E
:100C5C00C4188C42F9D3094A094C002301E01360F3
:100C6C000432A242FBD300F0F3FEFFF733FF7047D0
:100C7C00000000200C000020E81A00080C000020E6
:100C8C002C000020FEE7000080B500AF084B1B686D
:100C9C00074A43F010031360032000F02BF90F20D8
:100CAC0000F008F8FFF776FF0023184680BD00BF60
:100CBC000020024080B582B000AF7860124B1A68F9
:100CCC00124B1B7819464FF47A73B3FBF1F3B2FB5A
:100CDC00F3F3184600F035F90346002B01D001233D
:100CEC000EE07B680F2B0AD8002279684FF0FF309A
:100CFC0000F00BF9064A7B681360002300E0012327
:100D0C0018460837BD4680BD0000002008000020B2
:100D1C000400002080B400AF054B1B781A46054B2D
:100D2C001B681344034A136000BFBD4680BC704768
:100D3C00080000202800002080B400AF024B1B6884
:100D4C001846BD4680BC70472800002080B584B092
:100D5C0000AF7860FFF7F0FFB8607B68FB60FB6862
:100D6C00B3F1FF3F05D00A4B1B781A46FB681344BE
:100D7C00FB6000BFFFF7E0FF0246BB68D31AFA68BE
:100D8C009A42F7D800BF00BF1037BD4680BD00BFE8
:100D9C000800002080B485B000AF78607B6803F059
:100DAC000703FB600C4BDB68BB60BA684FF6FF03B4
:100DBC001340BB60FB681A02BB68134343F0BF636C
:100DCC0043F40033BB60044ABB68D36000BF1437E4
:100DDC00BD4680BC704700BF00ED00E080B400AFA2
:100DEC00044BDB681B0A03F007031846BD4680BCA6
:100DFC00704700BF00ED00E080B483B000AF034645
:100E0C003960FB7197F90730002B0ADB3B68DAB2CB
:100E1C000C4997F907301201D2B20B4483F8002326
:100E2C000AE03B68DAB20849FB7903F00F03043B94
:100E3C001201D2B20B441A7600BF0C37BD4680BCEF
:100E4C00704700BF00E100E000ED00E080B489B025
:100E5C0000AFF860B9607A60FB6803F00703FB61D0
:100E6C00FB69C3F10703042B28BF0423BB61FB6997
:100E7C000433062B02D9FB69033B00E000237B61A2
:100E8C004FF0FF32BB6902FA03F3DA43BB681A4036
:100E9C007B699A404FF0FF317B6901FA03F3D94328
:100EAC007B680B40134318462437BD4680BC704703
:100EBC0080B582B000AF78607B68013BB3F1807F76
:100ECC0001D301230FE00A4A7B68013B53600F21D9
:100EDC004FF0FF30FFF790FF054B00229A60044B58
:100EEC0007221A60002318460837BD4680BD00BF94
:100EFC0010E000E080B582B000AF78607868FFF752
:100F0C0049FF00BF0837BD4680BD80B586B000AF35
:100F1C000346B9607A60FB7300237B61FFF75EFFC9
:100F2C0078617A68B9687869FFF790FF024697F99B
:100F3C000F3011461846FFF75FFF00BF1837BD464C
:100F4C0080BD80B582B000AF78607868FFF7B0FFE5
:100F5C00034618460837BD4680BD000080B48BB0F0
:100F6C0000AF7860396000237B6200233B6261E153
:100F7C0001227B6A02FA03F3FB613B681B68FA6986
:100F8C001340BB61BA69FB699A4240F050813B68DF
:100F9C005B68974A93425ED0954A934275D8954ABE
:100FAC00934258D0934A93426FD8934A934252D06B
:100FBC00914A934269D8914A93424CD08F4A9342BA
:100FCC0063D88F4A934246D08D4A93425DD8122BF8
:100FDC002AD8122B59D801A252F823F0631000081A
:100FEC003D1000084F1000089110000897100008E1
:100FFC009710000897100008971000089710000829
:10100C009710000897100008971000089710000818
:10101C009710000897100008971000089710000808
:10102C004510000859100008764A934213D02CE062
:10103C003B68DB683B6229E03B68DB6804333B625E
:10104C0024E03B68DB6808333B621FE03B68DB68ED
:10105C000C333B621AE03B689B68002B02D10423E3
:10106C003B6213E03B689B68012B05D108233B6274
:10107C007B68FA691A6109E008233B627B68FA69AC
:10108C005A6103E000233B6200E000BFBB69FF2B09
:10109C0001D87B6801E07B6804337B61BB69FF2B63
:1010AC0002D87B6A9B0002E07B6A083B9B003B6199
:1010BC007B691A680F213B6901FA03F3DB431A4081
:1010CC00396A3B6901FA03F31A437B691A603B687E
:1010DC005B6803F08053002B00F0A9804A4B9B699E
:1010EC00494A43F001039361474B9B6903F00103A9
:1010FC00BB60BB68454A7B6A9B08023352F82330BD
:10110C00FB607B6A03F003039B000F2202FA03F3DC
:10111C00DB43FA681340FB607B683D4A93420DD079
:10112C007B683C4A934207D07B683B4A934201D18F
:10113C00022304E0032302E0012300E000237A6A87
:10114C0002F0030292009340FA681343FB602F49AC
:10115C007B6A9B080233FA6841F823203B685B6882
:10116C0003F48013002B06D02C4B9A682B49BB69D7
:10117C0013438B6006E0294B9A68BB69DB43274914
:10118C0013408B603B685B6803F40013002B06D0A4
:10119C00224BDA682149BB691343CB6006E01F4B35
:1011AC00DA68BB69DB431D491340CB603B685B6865
:1011BC0003F40033002B06D0184B5A681749BB694F
:1011CC0013434B6006E0154B5A68BB69DB4313496C
:1011DC0013404B603B685B6803F48033002B1FD0DB
:1011EC000E4B1A680D49BB6913430B601FE000BF1F
:1011FC0000003210000031100000221000002110FD
:10120C0000001210000011100010024000000140FC
:10121C0000080140000C0140001001400004014096
:10122C000B4B1A68BB69DB43094913400B607B6AA3
:10123C0001337B623B681A687B6A22FA03F3002B4A
:10124C007FF496AE00BF00BF2C37BD4680BC704704
:10125C000004014080B483B000AF78600B467B8003
:10126C0013467B707B78002B03D07A887B681A61DD
:10127C0003E07B881A047B681A6100BF0C37BD46FB
:10128C0080BC704780B586B000AF78607B68002B5F
:10129C0001D1012372E27B681B6803F00103002B70
:1012AC0000F08780924B5B6803F00C03042B0CD08E
:1012BC008F4B5B6803F00C03082B12D18C4B5B68D3
:1012CC0003F48033B3F5803F0BD1894B1B6803F4D7
:1012DC000033002B6CD07B685B68002B68D101233A
:1012EC004CE27B685B68B3F5803F06D1804B1B6892
:1012FC007F4A43F4803313602EE07B685B68002BDD
:10130C000CD17B4B1B687A4A23F480331360784BE7
:10131C001B68774A23F4802313601DE07B685B68AD
:10132C00B3F5A02F0CD1724B1B68714A43F4802388
:10133C0013606F4B1B686E4A43F4803313600BE0F1
:10134C006B4B1B686A4A23F480331360684B1B6831
:10135C00674A23F4802313607B685B68002B13D0EF
:10136C00FFF7EAFC386108E0FFF7E6FC02463B6950
:10137C00D31A642B01D9032300E25D4B1B6803F4E1
:10138C000033002BF0D014E0FFF7D6FC386108E0F6
:10139C00FFF7D2FC02463B69D31A642B01D9032315
:1013AC00ECE1534B1B6803F40033002BF0D100E04D
:1013BC0000BF7B681B6803F00203002B63D04C4B0F
:1013CC005B6803F00C03002B0BD0494B5B6803F0FC
:1013DC000C03082B1CD1464B5B6803F48033002BA9
:1013EC0016D1434B1B6803F00203002B05D07B681E
:1013FC001B69012B01D00123C0E13D4B1B6823F07D
:10140C00F8027B685B69DB00394913430B603AE0F7
:10141C007B681B69002B20D0364B01221A60FFF72A
:10142C008BFC386108E0FFF787FC02463B69D31A56
:10143C00022B01D90323A1E12D4B1B6803F00203FE
:10144C00002BF0D02A4B1B6823F0F8027B685B69F9
:10145C00DB00274913430B6015E0264B00221A6072
:10146C00FFF76AFC386108E0FFF766FC02463B694F
:10147C00D31A022B01D9032380E11D4B1B6803F007
:10148C000203002BF0D17B681B6803F00803002BD0
:10149C003AD07B689B69002B19D0174B01221A603C
:1014AC00FFF74AFC386108E0FFF746FC02463B694F
:1014BC00D31A022B01D9032360E10D4B5B6A03F0B5
:1014CC000203002BF0D0012000F09CFA1CE00A4B28
:1014DC0000221A60FFF730FC38610FE0FFF72CFC9C
:1014EC0002463B69D31A022B08D9032346E100BFFD
:1014FC00001002400000424280044242924B5B6A60
:10150C0003F00203002BE9D17B681B6803F0040392
:10151C00002B00F0A6800023FB758B4BDB6903F0DE
:10152C008053002B0DD1884BDB69874A43F08053E5
:10153C00D361854BDB6903F08053BB60BB6801232F
:10154C00FB75824B1B6803F48073002B18D17F4B07
:10155C001B687E4A43F480731360FFF7EDFB386120
:10156C0008E0FFF7E9FB02463B69D31A642B01D96B
:10157C00032303E1754B1B6803F48073002BF0D03D
:10158C007B68DB68012B06D16F4B1B6A6E4A43F0FC
:10159C00010313622DE07B68DB68002B0CD16A4BD6
:1015AC001B6A694A23F001031362674B1B6A664A84
:1015BC0023F0040313621CE07B68DB68052B0CD161
:1015CC00614B1B6A604A43F0040313625E4B1B6A57
:1015DC005D4A43F0010313620BE05B4B1B6A5A4AF2
:1015EC0023F001031362584B1B6A574A23F0040380
:1015FC0013627B68DB68002B15D0FFF79DFB38610D
:10160C000AE0FFF799FB02463B69D31A41F2883294
:10161C00934201D90323B1E04B4B1B6A03F0020345
:10162C00002BEED014E0FFF787FB38610AE0FFF7E0
:10163C0083FB02463B69D31A41F28832934201D9AB
:10164C0003239BE0404B1B6A03F00203002BEED1FB
:10165C00FB7D012B05D13C4BDB693B4A23F08053CE
:10166C00D3617B68DB69002B00F08780364B5B68AD
:10167C0003F00C03082B61D07B68DB69022B46D18D
:10168C00334B00221A60FFF757FB386108E0FFF775
:10169C0053FB02463B69D31A022B01D903236DE09D
:1016AC00294B1B6803F00073002BF0D17B681B6A7D
:1016BC00B3F5803F08D1244B5B6823F400327B6880
:1016CC009B68214913434B601F4B5B6823F47412D6
:1016DC007B68196A7B685B6A0B431B4913434B603D
:1016EC001B4B01221A60FFF727FB386108E0FFF75C
:1016FC0023FB02463B69D31A022B01D903233DE09D
:10170C00114B1B6803F00073002BF0D035E0104B2D
:10171C0000221A60FFF710FB386108E0FFF70CFBA2
:10172C0002463B69D31A022B01D9032326E0064B50
:10173C001B6803F00073002BF0D11EE07B68DB69A3
:10174C00012B07D1012319E000100240007000406A
:10175C00600042420B4B5B68FB60FB6803F4803219
:10176C007B681B6A9A4206D1FB6803F470127B6893
:10177C005B6A9A4201D0012300E000231846183717
:10178C00BD4680BD0010024080B584B000AF7860CB
:10179C0039607B68002B01D10123D0E06A4B1B68B8
:1017AC0003F007033A689A4210D9674B1B6823F081
:1017BC00070265493B6813430B60634B1B6803F0DE
:1017CC0007033A689A4201D00123B8E07B681B6892
:1017DC0003F00203002B20D07B681B6803F004038A
:1017EC00002B05D0594B5B68584A43F4E0635360B7
:1017FC007B681B6803F00803002B05D0534B5B6818
:10180C00524A43F460535360504B5B6823F0F00230
:10181C007B689B684D4913434B607B681B6803F0E6
:10182C000103002B40D07B685B68012B07D1474B31
:10183C001B6803F40033002B15D101237FE07B6878
:10184C005B68022B07D1414B1B6803F00073002B24
:10185C0009D1012373E03D4B1B6803F00203002BFD
:10186C0001D101236BE0394B5B6823F003027B68E9
:10187C005B68364913434B60FFF75EFAF8600AE089
:10188C00FFF75AFA0246FB68D31A41F288329342A8
:10189C0001D9032353E02D4B5B6803F00C027B68EA
:1018AC005B689B009A42EBD1274B1B6803F0070344
:1018BC003A689A4210D2244B1B6823F00702224943
:1018CC003B6813430B60204B1B6803F007033A681B
:1018DC009A4201D0012332E07B681B6803F00403B9
:1018EC00002B08D0194B5B6823F4E0627B68DB6843
:1018FC00164913434B607B681B6803F00803002BED
:10190C0009D0124B5B6823F460527B681B69DB00C7
:10191C000E4913434B6000F021F802460B4B5B68F9
:10192C001B0903F00F030A49CB5C22FA03F3094AA3
:10193C001360094B1B681846FFF7BCF900231846C7
:10194C001037BD4680BD00BF002002400010024091
:10195C00BC1A0008000000200400002080B487B0EE
:10196C0000AF0023FB600023BB6000237B610023DE
:10197C007B6000233B611E4B5B68FB60FB6803F0E4
:10198C000C03042B02D0082B03D027E0194B3B612E
:10199C0027E0FB689B0C03F00F03174AD35C7B60BA
:1019AC00FB6803F48033002B10D0114B5B685B0C8D
:1019BC0003F00103114AD35CBB607B680D4A03FB47
:1019CC0002F2BB68B2FBF3F37B6104E07B680C4A68
:1019DC0002FB03F37B617B693B6102E0054B3B61DE
:1019EC0000BF3B6918461C37BD4680BC704700BF22
:1019FC000010024000127A00CC1A0008DC1A000811
:101A0C0000093D0080B485B000AF78600A4B1B68BC
:101A1C000A4AA2FB03235B0A7A6802FB03F3FB600E
:101A2C0000BFFB685A1EFA60002BF9D100BF00BF43
:101A3C001437BD4680BC704700000020D34D6210A7
:101A4C0003460244934200D1704703F8011BF9E7A7
:101A5C0070B500260C4D0D4C641BA410A64209D188
:101A6C0000F01AF800260A4D0A4C641BA410A6427A
:101A7C0005D170BD55F8043B98470136EEE755F893
:101A8C00043B98470136F2E7E01A0008E01A000818
:101A9C00E01A0008E41A0008F8B500BFF8BC08BC4E
:101AAC009E467047F8B500BFF8BC08BC9E46704710
:101ABC0000000000000000000102030406070809F2
:101ACC0002030405060708090A0B0C0D0E0F101073
:041ADC000102000003
:041AE00031010008C8
:041AE4000D010008E8
:0C1AE80000127A00100000000100000055
:0400000508000C499A
:00000001FF
